8=FIX.4.2|9=79|35=A|34=1|49=FixClient8019|52=20190709-16:07:52.627|56=FixAcceptor|98=0|108=60|10=199|8=FIX.4.2|9=146|35=D|34=2|49=FixClient8019|52=20190709-16:07:54.627|56=FixAcceptor|11=APPL12456S|21=3|38=4500|40=1|44=200.9|54=1|55=APPL|60=20190709-16:07:54.626|10=071|8=FIX.4.2|9=115|35=3|34=3|49=FixClient8019|52=20190709-16:07:54.646|56=FixAcceptor|45=2|58=Required tag missing|371=33|372=B|373=1|10=107|8=FIX.4.2|9=67|35=5|34=4|49=FixClient8019|52=20190709-16:07:58.612|56=FixAcceptor|10=159|