8=FIX.4.2|9=79|35=A|34=1|49=FixAcceptor|52=20190709-16:42:34.100|56=FixClient8019|98=0|108=60|10=184|8=FIX.4.2|9=95|35=B|34=2|49=FixAcceptor|52=20190709-16:42:36.068|56=FixClient8019|148=Hello to OTC Expiration|10=198|8=FIX.4.2|9=145|35=8|34=3|49=FixAcceptor|52=20190709-16:42:36.076|56=FixClient8019|6=240.9|11=MISYS1001|14=45|17=1|20=0|37=1|38=45|39=2|54=1|55=APPL|150=2|151=0|10=103|