8=FIX.4.2|9=79|35=A|34=1|49=FixClient8019|52=20150810-13:09:25.268|56=FixAcceptor|98=0|108=60|10=188|8=FIX.4.2|9=144|35=D|34=2|49=FixClient8019|52=20150810-13:09:54.264|56=FixAcceptor|11=MISYS1001|21=3|38=45|40=2|44=240.9|54=1|55=MISYS|60=20150810-13:09:54.264|10=010|8=FIX.4.2|9=115|35=3|34=3|49=FixClient8019|52=20150810-13:09:54.296|56=FixAcceptor|45=2|58=Required tag missing|371=33|372=B|373=1|10=096|8=FIX.4.2|9=67|35=5|34=4|49=FixClient8019|52=20150810-13:10:25.198|56=FixAcceptor|10=142|8=FIX.4.2|9=79|35=A|34=1|49=FixClient8019|52=20150810-17:34:24.835|56=FixAcceptor|98=0|108=60|10=189|8=FIX.4.2|9=67|35=5|34=2|49=FixClient8019|52=20150810-17:34:24.883|56=FixAcceptor|10=150|8=FIX.4.2|9=79|35=A|34=3|49=FixClient8019|52=20150810-17:34:26.792|56=FixAcceptor|98=0|108=60|10=195|8=FIX.4.2|9=67|35=5|34=4|49=FixClient8019|52=20150810-17:34:26.792|56=FixAcceptor|10=153|8=FIX.4.2|9=79|35=A|34=5|49=FixClient8019|52=20150810-17:34:27.792|56=FixAcceptor|98=0|108=60|10=198|8=FIX.4.2|9=76|35=2|34=6|49=FixClient8019|52=20150810-17:34:27.792|56=FixAcceptor|7=3|16=0|10=022|8=FIX.4.2|9=144|35=D|34=7|49=FixClient8019|52=20150810-17:34:53.813|56=FixAcceptor|11=MISYS1001|21=3|38=45|40=2|44=240.9|54=1|55=MISYS|60=20150810-17:34:53.797|10=028|8=FIX.4.2|9=115|35=3|34=8|49=FixClient8019|52=20150810-17:34:53.845|56=FixAcceptor|45=8|58=Required tag missing|371=33|372=B|373=1|10=108|8=FIX.4.2|9=79|35=A|34=9|49=FixClient8019|52=20150810-17:51:53.143|56=FixAcceptor|98=0|108=60|10=190|8=FIX.4.2|9=145|35=D|34=10|49=FixClient8019|52=20150810-17:52:22.117|56=FixAcceptor|11=MISYS1001|21=3|38=45|40=2|44=240.9|54=1|55=MISYS|60=20150810-17:52:22.102|10=040|8=FIX.4.2|9=117|35=3|34=11|49=FixClient8019|52=20150810-17:52:22.118|56=FixAcceptor|45=11|58=Required tag missing|371=33|372=B|373=1|10=183|