8=FIX.4.2|9=79|35=A|34=1|49=FixClient8019|52=20190709-16:42:34.054|56=FixAcceptor|98=0|108=60|10=192|8=FIX.4.2|9=143|35=D|34=2|49=FixClient8019|52=20190709-16:42:36.054|56=FixAcceptor|11=MISYS1001|21=3|38=45|40=1|44=240.9|54=1|55=APPL|60=20190709-16:42:36.052|10=174|8=FIX.4.2|9=115|35=3|34=3|49=FixClient8019|52=20190709-16:42:36.074|56=FixAcceptor|45=2|58=Required tag missing|371=33|372=B|373=1|10=101|