8=FIX.4.2|9=79|35=A|34=1|49=FixAcceptor|52=20190709-16:07:52.649|56=FixClient8019|98=0|108=60|10=203|8=FIX.4.2|9=95|35=B|34=2|49=FixAcceptor|52=20190709-16:07:54.642|56=FixClient8019|148=Hello to OTC Expiration|10=197|8=FIX.4.2|9=150|35=8|34=3|49=FixAcceptor|52=20190709-16:07:54.648|56=FixClient8019|6=200.9|11=APPL12456S|14=4500|17=1|20=0|37=1|38=4500|39=2|54=1|55=APPL|150=2|151=0|10=080|8=FIX.4.2|9=67|35=5|34=4|49=FixAcceptor|52=20190709-16:07:58.616|56=FixClient8019|10=163|